{
  "address": "0x1C437d80B39BED5B2005bD6c6Bb6D16f00DFD65B",
  "abi": [
    {
      "inputs": [
        {
          "internalType": "address",
          "name": "_owner",
          "type": "address"
        }
      ],
      "stateMutability": "nonpayable",
      "type": "constructor"
    },
    {
      "anonymous": false,
      "inputs": [
        {
          "indexed": true,
          "internalType": "address",
          "name": "daoAddress",
          "type": "address"
        },
        {
          "indexed": false,
          "internalType": "string",
          "name": "title",
          "type": "string"
        },
        {
          "indexed": false,
          "internalType": "string",
          "name": "description",
          "type": "string"
        },
        {
          "indexed": false,
          "internalType": "string",
          "name": "socials",
          "type": "string"
        }
      ],
      "name": "DAOCreated",
      "type": "event"
    },
    {
      "anonymous": false,
      "inputs": [
        {
          "indexed": true,
          "internalType": "uint256",
          "name": "needId",
          "type": "uint256"
        },
        {
          "indexed": true,
          "internalType": "address",
          "name": "dao",
          "type": "address"
        },
        {
          "indexed": false,
          "internalType": "string",
          "name": "description",
          "type": "string"
        }
      ],
      "name": "NeedCreated",
      "type": "event"
    },
    {
      "anonymous": false,
      "inputs": [
        {
          "indexed": true,
          "internalType": "uint256",
          "name": "pollinId",
          "type": "uint256"
        },
        {
          "indexed": true,
          "internalType": "address",
          "name": "daoWithNeed",
          "type": "address"
        },
        {
          "indexed": true,
          "internalType": "address",
          "name": "daoWithOffering",
          "type": "address"
        },
        {
          "indexed": false,
          "internalType": "uint256",
          "name": "needId",
          "type": "uint256"
        },
        {
          "indexed": false,
          "internalType": "string",
          "name": "descriptionOfRelationship",
          "type": "string"
        },
        {
          "indexed": false,
          "internalType": "uint256",
          "name": "confidence",
          "type": "uint256"
        }
      ],
      "name": "PollinCreated",
      "type": "event"
    },
    {
      "inputs": [
        {
          "internalType": "string",
          "name": "_title",
          "type": "string"
        },
        {
          "internalType": "string",
          "name": "_description",
          "type": "string"
        },
        {
          "internalType": "string",
          "name": "_socials",
          "type": "string"
        }
      ],
      "name": "addDAO",
      "outputs": [],
      "stateMutability": "nonpayable",
      "type": "function"
    },
    {
      "inputs": [
        {
          "internalType": "string",
          "name": "_description",
          "type": "string"
        }
      ],
      "name": "addNeed",
      "outputs": [
        {
          "internalType": "uint256",
          "name": "",
          "type": "uint256"
        }
      ],
      "stateMutability": "nonpayable",
      "type": "function"
    },
    {
      "inputs": [
        {
          "internalType": "address",
          "name": "_daoWithNeed",
          "type": "address"
        },
        {
          "internalType": "address",
          "name": "_daoWithOffering",
          "type": "address"
        },
        {
          "internalType": "uint256",
          "name": "_needId",
          "type": "uint256"
        },
        {
          "internalType": "string",
          "name": "_descriptionOfRelationship",
          "type": "string"
        },
        {
          "internalType": "uint256",
          "name": "_confidence",
          "type": "uint256"
        }
      ],
      "name": "addPollin",
      "outputs": [
        {
          "internalType": "uint256",
          "name": "",
          "type": "uint256"
        }
      ],
      "stateMutability": "nonpayable",
      "type": "function"
    },
    {
      "inputs": [
        {
          "internalType": "uint256",
          "name": "",
          "type": "uint256"
        }
      ],
      "name": "daoAddresses",
      "outputs": [
        {
          "internalType": "address",
          "name": "",
          "type": "address"
        }
      ],
      "stateMutability": "view",
      "type": "function"
    },
    {
      "inputs": [
        {
          "internalType": "address",
          "name": "",
          "type": "address"
        }
      ],
      "name": "daos",
      "outputs": [
        {
          "internalType": "address",
          "name": "daoAddress",
          "type": "address"
        },
        {
          "internalType": "string",
          "name": "title",
          "type": "string"
        },
        {
          "internalType": "string",
          "name": "description",
          "type": "string"
        },
        {
          "internalType": "string",
          "name": "socials",
          "type": "string"
        }
      ],
      "stateMutability": "view",
      "type": "function"
    },
    {
      "inputs": [],
      "name": "getAllDAOs",
      "outputs": [
        {
          "components": [
            {
              "internalType": "address",
              "name": "daoAddress",
              "type": "address"
            },
            {
              "internalType": "string",
              "name": "title",
              "type": "string"
            },
            {
              "internalType": "string",
              "name": "description",
              "type": "string"
            },
            {
              "internalType": "string",
              "name": "socials",
              "type": "string"
            },
            {
              "internalType": "uint256[]",
              "name": "needIds",
              "type": "uint256[]"
            },
            {
              "internalType": "uint256[]",
              "name": "pollinIds",
              "type": "uint256[]"
            }
          ],
          "internalType": "struct PollinationStation.DAO[]",
          "name": "",
          "type": "tuple[]"
        }
      ],
      "stateMutability": "view",
      "type": "function"
    },
    {
      "inputs": [
        {
          "internalType": "address",
          "name": "_daoAddress",
          "type": "address"
        }
      ],
      "name": "getDAO",
      "outputs": [
        {
          "internalType": "string",
          "name": "title",
          "type": "string"
        },
        {
          "internalType": "string",
          "name": "description",
          "type": "string"
        },
        {
          "internalType": "string",
          "name": "socials",
          "type": "string"
        },
        {
          "internalType": "uint256[]",
          "name": "needIds",
          "type": "uint256[]"
        },
        {
          "internalType": "uint256[]",
          "name": "pollinIds",
          "type": "uint256[]"
        }
      ],
      "stateMutability": "view",
      "type": "function"
    },
    {
      "inputs": [],
      "name": "getDAOCount",
      "outputs": [
        {
          "internalType": "uint256",
          "name": "",
          "type": "uint256"
        }
      ],
      "stateMutability": "view",
      "type": "function"
    },
    {
      "inputs": [
        {
          "internalType": "uint256",
          "name": "_needId",
          "type": "uint256"
        }
      ],
      "name": "getNeed",
      "outputs": [
        {
          "internalType": "string",
          "name": "description",
          "type": "string"
        },
        {
          "internalType": "address",
          "name": "dao",
          "type": "address"
        }
      ],
      "stateMutability": "view",
      "type": "function"
    },
    {
      "inputs": [
        {
          "internalType": "uint256",
          "name": "_pollinId",
          "type": "uint256"
        }
      ],
      "name": "getPollin",
      "outputs": [
        {
          "internalType": "address",
          "name": "daoWithNeed",
          "type": "address"
        },
        {
          "internalType": "address",
          "name": "daoWithOffering",
          "type": "address"
        },
        {
          "internalType": "uint256",
          "name": "needId",
          "type": "uint256"
        },
        {
          "internalType": "string",
          "name": "descriptionOfRelationship",
          "type": "string"
        },
        {
          "internalType": "uint256",
          "name": "confidence",
          "type": "uint256"
        }
      ],
      "stateMutability": "view",
      "type": "function"
    },
    {
      "inputs": [],
      "name": "needCount",
      "outputs": [
        {
          "internalType": "uint256",
          "name": "",
          "type": "uint256"
        }
      ],
      "stateMutability": "view",
      "type": "function"
    },
    {
      "inputs": [
        {
          "internalType": "uint256",
          "name": "",
          "type": "uint256"
        }
      ],
      "name": "needs",
      "outputs": [
        {
          "internalType": "uint256",
          "name": "needId",
          "type": "uint256"
        },
        {
          "internalType": "string",
          "name": "description",
          "type": "string"
        },
        {
          "internalType": "address",
          "name": "dao",
          "type": "address"
        }
      ],
      "stateMutability": "view",
      "type": "function"
    },
    {
      "inputs": [],
      "name": "owner",
      "outputs": [
        {
          "internalType": "address",
          "name": "",
          "type": "address"
        }
      ],
      "stateMutability": "view",
      "type": "function"
    },
    {
      "inputs": [],
      "name": "pollinCount",
      "outputs": [
        {
          "internalType": "uint256",
          "name": "",
          "type": "uint256"
        }
      ],
      "stateMutability": "view",
      "type": "function"
    },
    {
      "inputs": [
        {
          "internalType": "uint256",
          "name": "",
          "type": "uint256"
        }
      ],
      "name": "pollins",
      "outputs": [
        {
          "internalType": "uint256",
          "name": "pollinId",
          "type": "uint256"
        },
        {
          "internalType": "address",
          "name": "daoWithNeed",
          "type": "address"
        },
        {
          "internalType": "address",
          "name": "daoWithOffering",
          "type": "address"
        },
        {
          "internalType": "uint256",
          "name": "needId",
          "type": "uint256"
        },
        {
          "internalType": "string",
          "name": "descriptionOfRelationship",
          "type": "string"
        },
        {
          "internalType": "uint256",
          "name": "confidence",
          "type": "uint256"
        }
      ],
      "stateMutability": "view",
      "type": "function"
    }
  ],
  "transactionHash": "0x254e4f59957594d1e436f549512cbd12ed864a59458743498af0a0464b52c04d",
  "args": [
    "0x14e5bf6bc8Be23aF794ecF5B8bdD23636131853d"
  ],
  "numDeployments": 1,
  "solcInputHash": "5a70b11454e7761e7c4a96398c1ae9a4",
  "bytecode": "0x608060405234801561001057600080fd5b50604051611e64380380611e6483398101604081905261002f91610054565b600080546001600160a01b0319166001600160a01b0392909216919091179055610084565b60006020828403121561006657600080fd5b81516001600160a01b038116811461007d57600080fd5b9392505050565b611dd1806100936000396000f3fe608060405234801561001057600080fd5b50600436106100f55760003560e01c80635b6edb1e11610097578063d05282d011610066578063d05282d014610221578063d6f09ad21461022a578063e11cf0bf1461024e578063e11debd91461027357600080fd5b80635b6edb1e146101c55780638da5cb5b146101d8578063c25f3cf6146101eb578063ce3924161461020e57600080fd5b806332df0f6b116100d357806332df0f6b146101655780633a479fb8146101865780633cb2c68a1461018e578063432747a5146101a357600080fd5b806324007a6d146100fa578063264bfb7c1461012a578063273b614914610141575b600080fd5b61010d610108366004611651565b610288565b6040516001600160a01b0390911681526020015b60405180910390f35b61013360055481565b604051908152602001610121565b61015461014f366004611686565b6102b2565b604051610121959493929190611729565b610178610173366004611651565b6105d6565b604051610121929190611796565b600654610133565b610196610708565b60405161012191906117c0565b6101b66101b1366004611651565b610a9f565b604051610121939291906118ad565b6101336101d3366004611981565b610b53565b60005461010d906001600160a01b031681565b6101fe6101f9366004611686565b610e8d565b60405161012194939291906119f1565b61013361021c366004611a46565b611059565b61013360045481565b61023d610238366004611651565b6111a1565b604051610121959493929190611a83565b61026161025c366004611651565b6112eb565b60405161012196959493929190611ac8565b610286610281366004611b14565b6113b8565b005b6006818154811061029857600080fd5b6000918252602090912001546001600160a01b0316905081565b6001600160a01b038082166000908152600160208181526040808420815160c08101909252805490951681529184018054606095869586958695869592949193929084019161030090611b9c565b80601f016020809104026020016040519081016040528092919081815260200182805461032c90611b9c565b80156103795780601f1061034e57610100808354040283529160200191610379565b820191906000526020600020905b81548152906001019060200180831161035c57829003601f168201915b5050505050815260200160028201805461039290611b9c565b80601f01602080910402602001604051908101604052809291908181526020018280546103be90611b9c565b801561040b5780601f106103e05761010080835404028352916020019161040b565b820191906000526020600020905b8154815290600101906020018083116103ee57829003601f168201915b5050505050815260200160038201805461042490611b9c565b80601f016020809104026020016040519081016040528092919081815260200182805461045090611b9c565b801561049d5780601f106104725761010080835404028352916020019161049d565b820191906000526020600020905b81548152906001019060200180831161048057829003601f168201915b50505050508152602001600482018054806020026020016040519081016040528092919081815260200182805480156104f557602002820191906000526020600020905b8154815260200190600101908083116104e1575b505050505081526020016005820180548060200260200160405190810160405280929190818152602001828054801561054d57602002820191906000526020600020905b815481526020019060010190808311610539575b5050509190925250508151919250506001600160a01b03166105ab5760405162461bcd60e51b8152602060048201526012602482015271111053c8191bd95cc81b9bdd08195e1a5cdd60721b60448201526064015b60405180910390fd5b602081015160408201516060830151608084015160a090940151929a91995097509195509350915050565b6060600080600260008581526020019081526020016000206040518060600160405290816000820154815260200160018201805461061390611b9c565b80601f016020809104026020016040519081016040528092919081815260200182805461063f90611b9c565b801561068c5780601f106106615761010080835404028352916020019161068c565b820191906000526020600020905b81548152906001019060200180831161066f57829003601f168201915b5050509183525050600291909101546001600160a01b031660209091015280519091506000036106f45760405162461bcd60e51b81526020600482015260136024820152721399595908191bd95cc81b9bdd08195e1a5cdd606a1b60448201526064016105a2565b806020015181604001519250925050915091565b60065460609060009067ffffffffffffffff811115610729576107296118de565b60405190808252806020026020018201604052801561079c57816020015b6107896040518060c0016040528060006001600160a01b0316815260200160608152602001606081526020016060815260200160608152602001606081525090565b8152602001906001900390816107475790505b50905060005b600654811015610a995760016000600683815481106107c3576107c3611bd0565b60009182526020808320909101546001600160a01b039081168452838201949094526040928301909120825160c08101909352805490931682526001830180549293929184019161081390611b9c565b80601f016020809104026020016040519081016040528092919081815260200182805461083f90611b9c565b801561088c5780601f106108615761010080835404028352916020019161088c565b820191906000526020600020905b81548152906001019060200180831161086f57829003601f168201915b505050505081526020016002820180546108a590611b9c565b80601f01602080910402602001604051908101604052809291908181526020018280546108d190611b9c565b801561091e5780601f106108f35761010080835404028352916020019161091e565b820191906000526020600020905b81548152906001019060200180831161090157829003601f168201915b5050505050815260200160038201805461093790611b9c565b80601f016020809104026020016040519081016040528092919081815260200182805461096390611b9c565b80156109b05780601f10610985576101008083540402835291602001916109b0565b820191906000526020600020905b81548152906001019060200180831161099357829003601f168201915b5050505050815260200160048201805480602002602001604051908101604052809291908181526020018280548015610a0857602002820191906000526020600020905b8154815260200190600101908083116109f4575b5050505050815260200160058201805480602002602001604051908101604052809291908181526020018280548015610a6057602002820191906000526020600020905b815481526020019060010190808311610a4c575b505050505081525050828281518110610a7b57610a7b611bd0565b60200260200101819052508080610a9190611be6565b9150506107a2565b50919050565b60026020526000908152604090208054600182018054919291610ac190611b9c565b80601f0160208091040260200160405190810160405280929190818152602001828054610aed90611b9c565b8015610b3a5780601f10610b0f57610100808354040283529160200191610b3a565b820191906000526020600020905b815481529060010190602001808311610b1d57829003601f168201915b505050600290930154919250506001600160a01b031683565b6001600160a01b03858116600090815260016020526040812054909116610bbc5760405162461bcd60e51b815260206004820152601c60248201527f44414f2077697468206e65656420646f6573206e6f742065786973740000000060448201526064016105a2565b6001600160a01b0385811660009081526001602052604090205416610c235760405162461bcd60e51b815260206004820181905260248201527f44414f2077697468206f66666572696e6720646f6573206e6f7420657869737460448201526064016105a2565b6000848152600260205260408120549003610c765760405162461bcd60e51b81526020600482015260136024820152721399595908191bd95cc81b9bdd08195e1a5cdd606a1b60448201526064016105a2565b600084815260026020819052604090912001546001600160a01b03878116911614610cf15760405162461bcd60e51b815260206004820152602560248201527f4e65656420646f6573206e6f742062656c6f6e6720746f207370656369666965604482015264642044414f60d81b60648201526084016105a2565b6064821115610d425760405162461bcd60e51b815260206004820152601860248201527f436f6e666964656e6365206d75737420626520302d313030000000000000000060448201526064016105a2565b60058054906000610d5283611be6565b90915550506005546040805160c0810182528281526001600160a01b03808a1660208084019182528a8316848601908152606085018b8152608086018b815260a087018b90526000898152600394859052979097208651815593516001850180549187166001600160a01b031992831617905591516002850180549190961692169190911790935591519181019190915591519091906004820190610df79082611c5c565b5060a08201518160050155905050856001600160a01b0316876001600160a01b0316827fc100563cf1990fc833150b85c90950e48262beebd44b4c1895e604519d910f35888888604051610e4d93929190611d1c565b60405180910390a46001600160a01b0387166000908152600160208181526040832060050180549283018155835290912001819055905095945050505050565b6001602081905260009182526040909120805491810180546001600160a01b0390931692610eba90611b9c565b80601f0160208091040260200160405190810160405280929190818152602001828054610ee690611b9c565b8015610f335780601f10610f0857610100808354040283529160200191610f33565b820191906000526020600020905b815481529060010190602001808311610f1657829003601f168201915b505050505090806002018054610f4890611b9c565b80601f0160208091040260200160405190810160405280929190818152602001828054610f7490611b9c565b8015610fc15780601f10610f9657610100808354040283529160200191610fc1565b820191906000526020600020905b815481529060010190602001808311610fa457829003601f168201915b505050505090806003018054610fd690611b9c565b80601f016020809104026020016040519081016040528092919081815260200182805461100290611b9c565b801561104f5780601f106110245761010080835404028352916020019161104f565b820191906000526020600020905b81548152906001019060200180831161103257829003601f168201915b5050505050905084565b336000818152600160205260408120549091906001600160a01b03166110b65760405162461bcd60e51b8152602060048201526012602482015271111053c8191bd95cc81b9bdd08195e1a5cdd60721b60448201526064016105a2565b600480549060006110c683611be6565b90915550506004546040805160608101825282815260208082018781526001600160a01b038616838501526000858152600290925292902081518155915190919060018201906111169082611c5c565b5060409182015160029190910180546001600160a01b0319166001600160a01b03928316179055831660008181526001602081815284832060040180549283018155835290912001839055905182907f0f978a6415bf28a02f483c2cd749ac541749fa0ae009d304175d86f03c16281390611192908890611d45565b60405180910390a39392505050565b6000818152600360208181526040808420815160c0810183528154815260018201546001600160a01b039081169482019490945260028201549093169183019190915291820154606082810191909152600483018054859485948593849391929160808401919061121190611b9c565b80601f016020809104026020016040519081016040528092919081815260200182805461123d90611b9c565b801561128a5780601f1061125f5761010080835404028352916020019161128a565b820191906000526020600020905b81548152906001019060200180831161126d57829003601f168201915b50505050508152602001600582015481525050905080600001516000036105ab5760405162461bcd60e51b8152602060048201526015602482015274141bdb1b1a5b88191bd95cc81b9bdd08195e1a5cdd605a1b60448201526064016105a2565b60036020819052600091825260409091208054600182015460028301549383015460048401805493956001600160a01b039384169593169391929161132f90611b9c565b80601f016020809104026020016040519081016040528092919081815260200182805461135b90611b9c565b80156113a85780601f1061137d576101008083540402835291602001916113a8565b820191906000526020600020905b81548152906001019060200180831161138b57829003601f168201915b5050505050908060050154905086565b336000818152600160205260409020546001600160a01b0316156114135760405162461bcd60e51b815260206004820152601260248201527144414f20616c72656164792065786973747360701b60448201526064016105a2565b6040518060c00160405280826001600160a01b03168152602001858152602001848152602001838152602001600067ffffffffffffffff811115611459576114596118de565b604051908082528060200260200182016040528015611482578160200160208202803683370190505b50815260200160006040519080825280602002602001820160405280156114b3578160200160208202803683370190505b5090526001600160a01b038281166000908152600160208181526040909220845181546001600160a01b031916941693909317835590830151908201906114fa9082611c5c565b506040820151600282019061150f9082611c5c565b50606082015160038201906115249082611c5c565b50608082015180516115409160048401916020909101906115f1565b5060a0820151805161155c9160058401916020909101906115f1565b5050600680546001810182556000919091527ff652222313e28459528d920b65115c16c04f3efc82aaedc97be59f3f377c0d3f0180546001600160a01b0319166001600160a01b0384169081179091556040519091507f23ea31b76173fe549f6ae3f313f8014f5fa0bda4b8518e2540ccf514d1ddc08c906115e390879087908790611d58565b60405180910390a250505050565b82805482825590600052602060002090810192821561162c579160200282015b8281111561162c578251825591602001919060010190611611565b5061163892915061163c565b5090565b5b80821115611638576000815560010161163d565b60006020828403121561166357600080fd5b5035919050565b80356001600160a01b038116811461168157600080fd5b919050565b60006020828403121561169857600080fd5b6116a18261166a565b9392505050565b6000815180845260005b818110156116ce576020818501810151868301820152016116b2565b506000602082860101526020601f19601f83011685010191505092915050565b600081518084526020808501945080840160005b8381101561171e57815187529582019590820190600101611702565b509495945050505050565b60a08152600061173c60a08301886116a8565b828103602084015261174e81886116a8565b9050828103604084015261176281876116a8565b9050828103606084015261177681866116ee565b9050828103608084015261178a81856116ee565b98975050505050505050565b6040815260006117a960408301856116a8565b905060018060a01b03831660208301529392505050565b60006020808301818452808551808352604092508286019150828160051b87010184880160005b8381101561189f57888303603f19018552815180516001600160a01b031684528781015160c089860181905290611820828701826116a8565b915050878201518582038987015261183882826116a8565b9150506060808301518683038288015261185283826116a8565b925050506080808301518683038288015261186d83826116ee565b9250505060a0808301519250858203818701525061188b81836116ee565b9689019694505050908601906001016117e7565b509098975050505050505050565b8381526060602082015260006118c660608301856116a8565b905060018060a01b0383166040830152949350505050565b634e487b7160e01b600052604160045260246000fd5b600082601f83011261190557600080fd5b813567ffffffffffffffff80821115611920576119206118de565b604051601f8301601f19908116603f01168101908282118183101715611948576119486118de565b8160405283815286602085880101111561196157600080fd5b836020870160208301376000602085830101528094505050505092915050565b600080600080600060a0868803121561199957600080fd5b6119a28661166a565b94506119b06020870161166a565b935060408601359250606086013567ffffffffffffffff8111156119d357600080fd5b6119df888289016118f4565b95989497509295608001359392505050565b6001600160a01b0385168152608060208201819052600090611a15908301866116a8565b8281036040840152611a2781866116a8565b90508281036060840152611a3b81856116a8565b979650505050505050565b600060208284031215611a5857600080fd5b813567ffffffffffffffff811115611a6f57600080fd5b611a7b848285016118f4565b949350505050565b6001600160a01b038681168252851660208201526040810184905260a060608201819052600090611ab6908301856116a8565b90508260808301529695505050505050565b8681526001600160a01b038681166020830152851660408201526060810184905260c060808201819052600090611b01908301856116a8565b90508260a0830152979650505050505050565b600080600060608486031215611b2957600080fd5b833567ffffffffffffffff80821115611b4157600080fd5b611b4d878388016118f4565b94506020860135915080821115611b6357600080fd5b611b6f878388016118f4565b93506040860135915080821115611b8557600080fd5b50611b92868287016118f4565b9150509250925092565b600181811c90821680611bb057607f821691505b602082108103610a9957634e487b7160e01b600052602260045260246000fd5b634e487b7160e01b600052603260045260246000fd5b600060018201611c0657634e487b7160e01b600052601160045260246000fd5b5060010190565b601f821115611c5757600081815260208120601f850160051c81016020861015611c345750805b601f850160051c820191505b81811015611c5357828155600101611c40565b5050505b505050565b815167ffffffffffffffff811115611c7657611c766118de565b611c8a81611c848454611b9c565b84611c0d565b602080601f831160018114611cbf5760008415611ca75750858301515b600019600386901b1c1916600185901b178555611c53565b600085815260208120601f198616915b82811015611cee57888601518255948401946001909101908401611ccf565b5085821015611d0c5787850151600019600388901b60f8161c191681555b5050505050600190811b01905550565b838152606060208201526000611d3560608301856116a8565b9050826040830152949350505050565b6020815260006116a160208301846116a8565b606081526000611d6b60608301866116a8565b8281036020840152611d7d81866116a8565b90508281036040840152611d9181856116a8565b969550505050505056fea264697066735822122097da3ff3100a75270babc98206babb0619e03a1eda8164d011a4286f6b31557a64736f6c63430008140033",
  "devdoc": {
    "kind": "dev",
    "methods": {},
    "version": 1
  },
  "userdoc": {
    "kind": "user",
    "methods": {},
    "version": 1
  },
  "storageLayout": {
    "storage": [
      {
        "astId": 3,
        "contract": "contracts/PollinationStation.sol:PollinationStation",
        "label": "owner",
        "offset": 0,
        "slot": "0",
        "type": "t_address"
      },
      {
        "astId": 43,
        "contract": "contracts/PollinationStation.sol:PollinationStation",
        "label": "daos",
        "offset": 0,
        "slot": "1",
        "type": "t_mapping(t_address,t_struct(DAO)18_storage)"
      },
      {
        "astId": 48,
        "contract": "contracts/PollinationStation.sol:PollinationStation",
        "label": "needs",
        "offset": 0,
        "slot": "2",
        "type": "t_mapping(t_uint256,t_struct(Need)25_storage)"
      },
      {
        "astId": 53,
        "contract": "contracts/PollinationStation.sol:PollinationStation",
        "label": "pollins",
        "offset": 0,
        "slot": "3",
        "type": "t_mapping(t_uint256,t_struct(Pollin)38_storage)"
      },
      {
        "astId": 55,
        "contract": "contracts/PollinationStation.sol:PollinationStation",
        "label": "needCount",
        "offset": 0,
        "slot": "4",
        "type": "t_uint256"
      },
      {
        "astId": 57,
        "contract": "contracts/PollinationStation.sol:PollinationStation",
        "label": "pollinCount",
        "offset": 0,
        "slot": "5",
        "type": "t_uint256"
      },
      {
        "astId": 60,
        "contract": "contracts/PollinationStation.sol:PollinationStation",
        "label": "daoAddresses",
        "offset": 0,
        "slot": "6",
        "type": "t_array(t_address)dyn_storage"
      }
    ],
    "types": {
      "t_address": {
        "encoding": "inplace",
        "label": "address",
        "numberOfBytes": "20"
      },
      "t_array(t_address)dyn_storage": {
        "base": "t_address",
        "encoding": "dynamic_array",
        "label": "address[]",
        "numberOfBytes": "32"
      },
      "t_array(t_uint256)dyn_storage": {
        "base": "t_uint256",
        "encoding": "dynamic_array",
        "label": "uint256[]",
        "numberOfBytes": "32"
      },
      "t_mapping(t_address,t_struct(DAO)18_storage)": {
        "encoding": "mapping",
        "key": "t_address",
        "label": "mapping(address => struct PollinationStation.DAO)",
        "numberOfBytes": "32",
        "value": "t_struct(DAO)18_storage"
      },
      "t_mapping(t_uint256,t_struct(Need)25_storage)": {
        "encoding": "mapping",
        "key": "t_uint256",
        "label": "mapping(uint256 => struct PollinationStation.Need)",
        "numberOfBytes": "32",
        "value": "t_struct(Need)25_storage"
      },
      "t_mapping(t_uint256,t_struct(Pollin)38_storage)": {
        "encoding": "mapping",
        "key": "t_uint256",
        "label": "mapping(uint256 => struct PollinationStation.Pollin)",
        "numberOfBytes": "32",
        "value": "t_struct(Pollin)38_storage"
      },
      "t_string_storage": {
        "encoding": "bytes",
        "label": "string",
        "numberOfBytes": "32"
      },
      "t_struct(DAO)18_storage": {
        "encoding": "inplace",
        "label": "struct PollinationStation.DAO",
        "members": [
          {
            "astId": 5,
            "contract": "contracts/PollinationStation.sol:PollinationStation",
            "label": "daoAddress",
            "offset": 0,
            "slot": "0",
            "type": "t_address"
          },
          {
            "astId": 7,
            "contract": "contracts/PollinationStation.sol:PollinationStation",
            "label": "title",
            "offset": 0,
            "slot": "1",
            "type": "t_string_storage"
          },
          {
            "astId": 9,
            "contract": "contracts/PollinationStation.sol:PollinationStation",
            "label": "description",
            "offset": 0,
            "slot": "2",
            "type": "t_string_storage"
          },
          {
            "astId": 11,
            "contract": "contracts/PollinationStation.sol:PollinationStation",
            "label": "socials",
            "offset": 0,
            "slot": "3",
            "type": "t_string_storage"
          },
          {
            "astId": 14,
            "contract": "contracts/PollinationStation.sol:PollinationStation",
            "label": "needIds",
            "offset": 0,
            "slot": "4",
            "type": "t_array(t_uint256)dyn_storage"
          },
          {
            "astId": 17,
            "contract": "contracts/PollinationStation.sol:PollinationStation",
            "label": "pollinIds",
            "offset": 0,
            "slot": "5",
            "type": "t_array(t_uint256)dyn_storage"
          }
        ],
        "numberOfBytes": "192"
      },
      "t_struct(Need)25_storage": {
        "encoding": "inplace",
        "label": "struct PollinationStation.Need",
        "members": [
          {
            "astId": 20,
            "contract": "contracts/PollinationStation.sol:PollinationStation",
            "label": "needId",
            "offset": 0,
            "slot": "0",
            "type": "t_uint256"
          },
          {
            "astId": 22,
            "contract": "contracts/PollinationStation.sol:PollinationStation",
            "label": "description",
            "offset": 0,
            "slot": "1",
            "type": "t_string_storage"
          },
          {
            "astId": 24,
            "contract": "contracts/PollinationStation.sol:PollinationStation",
            "label": "dao",
            "offset": 0,
            "slot": "2",
            "type": "t_address"
          }
        ],
        "numberOfBytes": "96"
      },
      "t_struct(Pollin)38_storage": {
        "encoding": "inplace",
        "label": "struct PollinationStation.Pollin",
        "members": [
          {
            "astId": 27,
            "contract": "contracts/PollinationStation.sol:PollinationStation",
            "label": "pollinId",
            "offset": 0,
            "slot": "0",
            "type": "t_uint256"
          },
          {
            "astId": 29,
            "contract": "contracts/PollinationStation.sol:PollinationStation",
            "label": "daoWithNeed",
            "offset": 0,
            "slot": "1",
            "type": "t_address"
          },
          {
            "astId": 31,
            "contract": "contracts/PollinationStation.sol:PollinationStation",
            "label": "daoWithOffering",
            "offset": 0,
            "slot": "2",
            "type": "t_address"
          },
          {
            "astId": 33,
            "contract": "contracts/PollinationStation.sol:PollinationStation",
            "label": "needId",
            "offset": 0,
            "slot": "3",
            "type": "t_uint256"
          },
          {
            "astId": 35,
            "contract": "contracts/PollinationStation.sol:PollinationStation",
            "label": "descriptionOfRelationship",
            "offset": 0,
            "slot": "4",
            "type": "t_string_storage"
          },
          {
            "astId": 37,
            "contract": "contracts/PollinationStation.sol:PollinationStation",
            "label": "confidence",
            "offset": 0,
            "slot": "5",
            "type": "t_uint256"
          }
        ],
        "numberOfBytes": "192"
      },
      "t_uint256": {
        "encoding": "inplace",
        "label": "uint256",
        "numberOfBytes": "32"
      }
    }
  }
}