{
  "address": "0x4964a80dCF9B4f9005b0476BA2ce54620d774216",
  "abi": [
    {
      "inputs": [
        {
          "internalType": "address",
          "name": "_owner",
          "type": "address"
        }
      ],
      "stateMutability": "nonpayable",
      "type": "constructor"
    },
    {
      "anonymous": false,
      "inputs": [
        {
          "indexed": true,
          "internalType": "address",
          "name": "daoAddress",
          "type": "address"
        },
        {
          "indexed": false,
          "internalType": "string",
          "name": "title",
          "type": "string"
        },
        {
          "indexed": false,
          "internalType": "string",
          "name": "description",
          "type": "string"
        },
        {
          "indexed": false,
          "internalType": "string",
          "name": "socials",
          "type": "string"
        }
      ],
      "name": "DAOCreated",
      "type": "event"
    },
    {
      "anonymous": false,
      "inputs": [
        {
          "indexed": true,
          "internalType": "uint256",
          "name": "needId",
          "type": "uint256"
        },
        {
          "indexed": true,
          "internalType": "address",
          "name": "dao",
          "type": "address"
        },
        {
          "indexed": false,
          "internalType": "string",
          "name": "description",
          "type": "string"
        }
      ],
      "name": "NeedCreated",
      "type": "event"
    },
    {
      "anonymous": false,
      "inputs": [
        {
          "indexed": true,
          "internalType": "uint256",
          "name": "pollinId",
          "type": "uint256"
        },
        {
          "indexed": true,
          "internalType": "address",
          "name": "daoWithNeed",
          "type": "address"
        },
        {
          "indexed": true,
          "internalType": "address",
          "name": "daoWithOffering",
          "type": "address"
        },
        {
          "indexed": false,
          "internalType": "uint256",
          "name": "needId",
          "type": "uint256"
        },
        {
          "indexed": false,
          "internalType": "string",
          "name": "descriptionOfRelationship",
          "type": "string"
        },
        {
          "indexed": false,
          "internalType": "uint256",
          "name": "confidence",
          "type": "uint256"
        }
      ],
      "name": "PollinCreated",
      "type": "event"
    },
    {
      "inputs": [
        {
          "internalType": "string",
          "name": "_title",
          "type": "string"
        },
        {
          "internalType": "string",
          "name": "_description",
          "type": "string"
        },
        {
          "internalType": "string",
          "name": "_socials",
          "type": "string"
        }
      ],
      "name": "addDAO",
      "outputs": [],
      "stateMutability": "nonpayable",
      "type": "function"
    },
    {
      "inputs": [
        {
          "internalType": "string",
          "name": "_description",
          "type": "string"
        }
      ],
      "name": "addNeed",
      "outputs": [
        {
          "internalType": "uint256",
          "name": "",
          "type": "uint256"
        }
      ],
      "stateMutability": "nonpayable",
      "type": "function"
    },
    {
      "inputs": [
        {
          "internalType": "address",
          "name": "_daoWithNeed",
          "type": "address"
        },
        {
          "internalType": "address",
          "name": "_daoWithOffering",
          "type": "address"
        },
        {
          "internalType": "uint256",
          "name": "_needId",
          "type": "uint256"
        },
        {
          "internalType": "string",
          "name": "_descriptionOfRelationship",
          "type": "string"
        },
        {
          "internalType": "uint256",
          "name": "_confidence",
          "type": "uint256"
        }
      ],
      "name": "addPollin",
      "outputs": [
        {
          "internalType": "uint256",
          "name": "",
          "type": "uint256"
        }
      ],
      "stateMutability": "nonpayable",
      "type": "function"
    },
    {
      "inputs": [
        {
          "internalType": "address",
          "name": "",
          "type": "address"
        }
      ],
      "name": "daos",
      "outputs": [
        {
          "internalType": "address",
          "name": "daoAddress",
          "type": "address"
        },
        {
          "internalType": "string",
          "name": "title",
          "type": "string"
        },
        {
          "internalType": "string",
          "name": "description",
          "type": "string"
        },
        {
          "internalType": "string",
          "name": "socials",
          "type": "string"
        }
      ],
      "stateMutability": "view",
      "type": "function"
    },
    {
      "inputs": [
        {
          "internalType": "address",
          "name": "_daoAddress",
          "type": "address"
        }
      ],
      "name": "getDAO",
      "outputs": [
        {
          "internalType": "string",
          "name": "title",
          "type": "string"
        },
        {
          "internalType": "string",
          "name": "description",
          "type": "string"
        },
        {
          "internalType": "string",
          "name": "socials",
          "type": "string"
        },
        {
          "internalType": "uint256[]",
          "name": "needIds",
          "type": "uint256[]"
        },
        {
          "internalType": "uint256[]",
          "name": "pollinIds",
          "type": "uint256[]"
        }
      ],
      "stateMutability": "view",
      "type": "function"
    },
    {
      "inputs": [
        {
          "internalType": "uint256",
          "name": "_needId",
          "type": "uint256"
        }
      ],
      "name": "getNeed",
      "outputs": [
        {
          "internalType": "string",
          "name": "description",
          "type": "string"
        },
        {
          "internalType": "address",
          "name": "dao",
          "type": "address"
        }
      ],
      "stateMutability": "view",
      "type": "function"
    },
    {
      "inputs": [
        {
          "internalType": "uint256",
          "name": "_pollinId",
          "type": "uint256"
        }
      ],
      "name": "getPollin",
      "outputs": [
        {
          "internalType": "address",
          "name": "daoWithNeed",
          "type": "address"
        },
        {
          "internalType": "address",
          "name": "daoWithOffering",
          "type": "address"
        },
        {
          "internalType": "uint256",
          "name": "needId",
          "type": "uint256"
        },
        {
          "internalType": "string",
          "name": "descriptionOfRelationship",
          "type": "string"
        },
        {
          "internalType": "uint256",
          "name": "confidence",
          "type": "uint256"
        }
      ],
      "stateMutability": "view",
      "type": "function"
    },
    {
      "inputs": [],
      "name": "needCount",
      "outputs": [
        {
          "internalType": "uint256",
          "name": "",
          "type": "uint256"
        }
      ],
      "stateMutability": "view",
      "type": "function"
    },
    {
      "inputs": [
        {
          "internalType": "uint256",
          "name": "",
          "type": "uint256"
        }
      ],
      "name": "needs",
      "outputs": [
        {
          "internalType": "uint256",
          "name": "needId",
          "type": "uint256"
        },
        {
          "internalType": "string",
          "name": "description",
          "type": "string"
        },
        {
          "internalType": "address",
          "name": "dao",
          "type": "address"
        }
      ],
      "stateMutability": "view",
      "type": "function"
    },
    {
      "inputs": [],
      "name": "owner",
      "outputs": [
        {
          "internalType": "address",
          "name": "",
          "type": "address"
        }
      ],
      "stateMutability": "view",
      "type": "function"
    },
    {
      "inputs": [],
      "name": "pollinCount",
      "outputs": [
        {
          "internalType": "uint256",
          "name": "",
          "type": "uint256"
        }
      ],
      "stateMutability": "view",
      "type": "function"
    },
    {
      "inputs": [
        {
          "internalType": "uint256",
          "name": "",
          "type": "uint256"
        }
      ],
      "name": "pollins",
      "outputs": [
        {
          "internalType": "uint256",
          "name": "pollinId",
          "type": "uint256"
        },
        {
          "internalType": "address",
          "name": "daoWithNeed",
          "type": "address"
        },
        {
          "internalType": "address",
          "name": "daoWithOffering",
          "type": "address"
        },
        {
          "internalType": "uint256",
          "name": "needId",
          "type": "uint256"
        },
        {
          "internalType": "string",
          "name": "descriptionOfRelationship",
          "type": "string"
        },
        {
          "internalType": "uint256",
          "name": "confidence",
          "type": "uint256"
        }
      ],
      "stateMutability": "view",
      "type": "function"
    }
  ],
  "transactionHash": "0x80fbae981745df60071ed20a3be61bc5ef98fde2e820e0fb60434c0a931c07cb",
  "args": [
    "0x1DB822627aE04262DE91056c2fc98A4376f71c6E"
  ],
  "numDeployments": 1,
  "solcInputHash": "14e5c960719ebe0f7ee49c9fa8391bdb",
  "bytecode": "0x608060405234801561001057600080fd5b506040516118ef3803806118ef83398101604081905261002f91610054565b600080546001600160a01b0319166001600160a01b0392909216919091179055610084565b60006020828403121561006657600080fd5b81516001600160a01b038116811461007d57600080fd5b9392505050565b61185c806100936000396000f3fe608060405234801561001057600080fd5b50600436106100b45760003560e01c8063c25f3cf611610071578063c25f3cf61461017a578063ce3924161461019d578063d05282d0146101b0578063d6f09ad2146101b9578063e11cf0bf146101dd578063e11debd91461020257600080fd5b8063264bfb7c146100b9578063273b6149146100d557806332df0f6b146100f9578063432747a51461011a5780635b6edb1e1461013c5780638da5cb5b1461014f575b600080fd5b6100c260055481565b6040519081526020015b60405180910390f35b6100e86100e33660046111f5565b610217565b6040516100cc959493929190611298565b61010c610107366004611305565b61053b565b6040516100cc92919061131e565b61012d610128366004611305565b61066d565b6040516100cc93929190611348565b6100c261014a36600461141c565b610721565b600054610162906001600160a01b031681565b6040516001600160a01b0390911681526020016100cc565b61018d6101883660046111f5565b610a5b565b6040516100cc949392919061148c565b6100c26101ab3660046114e1565b610c27565b6100c260045481565b6101cc6101c7366004611305565b610d6f565b6040516100cc95949392919061151e565b6101f06101eb366004611305565b610eb9565b6040516100cc96959493929190611563565b6102156102103660046115af565b610f86565b005b6001600160a01b038082166000908152600160208181526040808420815160c08101909252805490951681529184018054606095869586958695869592949193929084019161026590611637565b80601f016020809104026020016040519081016040528092919081815260200182805461029190611637565b80156102de5780601f106102b3576101008083540402835291602001916102de565b820191906000526020600020905b8154815290600101906020018083116102c157829003601f168201915b505050505081526020016002820180546102f790611637565b80601f016020809104026020016040519081016040528092919081815260200182805461032390611637565b80156103705780601f1061034557610100808354040283529160200191610370565b820191906000526020600020905b81548152906001019060200180831161035357829003601f168201915b5050505050815260200160038201805461038990611637565b80601f01602080910402602001604051908101604052809291908181526020018280546103b590611637565b80156104025780601f106103d757610100808354040283529160200191610402565b820191906000526020600020905b8154815290600101906020018083116103e557829003601f168201915b505050505081526020016004820180548060200260200160405190810160405280929190818152602001828054801561045a57602002820191906000526020600020905b815481526020019060010190808311610446575b50505050508152602001600582018054806020026020016040519081016040528092919081815260200182805480156104b257602002820191906000526020600020905b81548152602001906001019080831161049e575b5050509190925250508151919250506001600160a01b03166105105760405162461bcd60e51b8152602060048201526012602482015271111053c8191bd95cc81b9bdd08195e1a5cdd60721b60448201526064015b60405180910390fd5b602081015160408201516060830151608084015160a090940151929a91995097509195509350915050565b6060600080600260008581526020019081526020016000206040518060600160405290816000820154815260200160018201805461057890611637565b80601f01602080910402602001604051908101604052809291908181526020018280546105a490611637565b80156105f15780601f106105c6576101008083540402835291602001916105f1565b820191906000526020600020905b8154815290600101906020018083116105d457829003601f168201915b5050509183525050600291909101546001600160a01b031660209091015280519091506000036106595760405162461bcd60e51b81526020600482015260136024820152721399595908191bd95cc81b9bdd08195e1a5cdd606a1b6044820152606401610507565b806020015181604001519250925050915091565b6002602052600090815260409020805460018201805491929161068f90611637565b80601f01602080910402602001604051908101604052809291908181526020018280546106bb90611637565b80156107085780601f106106dd57610100808354040283529160200191610708565b820191906000526020600020905b8154815290600101906020018083116106eb57829003601f168201915b505050600290930154919250506001600160a01b031683565b6001600160a01b0385811660009081526001602052604081205490911661078a5760405162461bcd60e51b815260206004820152601c60248201527f44414f2077697468206e65656420646f6573206e6f74206578697374000000006044820152606401610507565b6001600160a01b03858116600090815260016020526040902054166107f15760405162461bcd60e51b815260206004820181905260248201527f44414f2077697468206f66666572696e6720646f6573206e6f742065786973746044820152606401610507565b60008481526002602052604081205490036108445760405162461bcd60e51b81526020600482015260136024820152721399595908191bd95cc81b9bdd08195e1a5cdd606a1b6044820152606401610507565b600084815260026020819052604090912001546001600160a01b038781169116146108bf5760405162461bcd60e51b815260206004820152602560248201527f4e65656420646f6573206e6f742062656c6f6e6720746f207370656369666965604482015264642044414f60d81b6064820152608401610507565b60648211156109105760405162461bcd60e51b815260206004820152601860248201527f436f6e666964656e6365206d75737420626520302d31303000000000000000006044820152606401610507565b6005805490600061092083611671565b90915550506005546040805160c0810182528281526001600160a01b03808a1660208084019182528a8316848601908152606085018b8152608086018b815260a087018b90526000898152600394859052979097208651815593516001850180549187166001600160a01b0319928316179055915160028501805491909616921691909117909355915191810191909155915190919060048201906109c590826116e7565b5060a08201518160050155905050856001600160a01b0316876001600160a01b0316827fc100563cf1990fc833150b85c90950e48262beebd44b4c1895e604519d910f35888888604051610a1b939291906117a7565b60405180910390a46001600160a01b0387166000908152600160208181526040832060050180549283018155835290912001819055905095945050505050565b6001602081905260009182526040909120805491810180546001600160a01b0390931692610a8890611637565b80601f0160208091040260200160405190810160405280929190818152602001828054610ab490611637565b8015610b015780601f10610ad657610100808354040283529160200191610b01565b820191906000526020600020905b815481529060010190602001808311610ae457829003601f168201915b505050505090806002018054610b1690611637565b80601f0160208091040260200160405190810160405280929190818152602001828054610b4290611637565b8015610b8f5780601f10610b6457610100808354040283529160200191610b8f565b820191906000526020600020905b815481529060010190602001808311610b7257829003601f168201915b505050505090806003018054610ba490611637565b80601f0160208091040260200160405190810160405280929190818152602001828054610bd090611637565b8015610c1d5780601f10610bf257610100808354040283529160200191610c1d565b820191906000526020600020905b815481529060010190602001808311610c0057829003601f168201915b5050505050905084565b336000818152600160205260408120549091906001600160a01b0316610c845760405162461bcd60e51b8152602060048201526012602482015271111053c8191bd95cc81b9bdd08195e1a5cdd60721b6044820152606401610507565b60048054906000610c9483611671565b90915550506004546040805160608101825282815260208082018781526001600160a01b03861683850152600085815260029092529290208151815591519091906001820190610ce490826116e7565b5060409182015160029190910180546001600160a01b0319166001600160a01b03928316179055831660008181526001602081815284832060040180549283018155835290912001839055905182907f0f978a6415bf28a02f483c2cd749ac541749fa0ae009d304175d86f03c16281390610d609088906117d0565b60405180910390a39392505050565b6000818152600360208181526040808420815160c0810183528154815260018201546001600160a01b0390811694820194909452600282015490931691830191909152918201546060828101919091526004830180548594859485938493919291608084019190610ddf90611637565b80601f0160208091040260200160405190810160405280929190818152602001828054610e0b90611637565b8015610e585780601f10610e2d57610100808354040283529160200191610e58565b820191906000526020600020905b815481529060010190602001808311610e3b57829003601f168201915b50505050508152602001600582015481525050905080600001516000036105105760405162461bcd60e51b8152602060048201526015602482015274141bdb1b1a5b88191bd95cc81b9bdd08195e1a5cdd605a1b6044820152606401610507565b60036020819052600091825260409091208054600182015460028301549383015460048401805493956001600160a01b0393841695931693919291610efd90611637565b80601f0160208091040260200160405190810160405280929190818152602001828054610f2990611637565b8015610f765780601f10610f4b57610100808354040283529160200191610f76565b820191906000526020600020905b815481529060010190602001808311610f5957829003601f168201915b5050505050908060050154905086565b336000818152600160205260409020546001600160a01b031615610fe15760405162461bcd60e51b815260206004820152601260248201527144414f20616c72656164792065786973747360701b6044820152606401610507565b6040518060c00160405280826001600160a01b03168152602001858152602001848152602001838152602001600067ffffffffffffffff81111561102757611027611379565b604051908082528060200260200182016040528015611050578160200160208202803683370190505b5081526020016000604051908082528060200260200182016040528015611081578160200160208202803683370190505b5090526001600160a01b038281166000908152600160208181526040909220845181546001600160a01b031916941693909317835590830151908201906110c890826116e7565b50604082015160028201906110dd90826116e7565b50606082015160038201906110f290826116e7565b506080820151805161110e916004840191602090910190611179565b5060a0820151805161112a916005840191602090910190611179565b50905050806001600160a01b03167f23ea31b76173fe549f6ae3f313f8014f5fa0bda4b8518e2540ccf514d1ddc08c85858560405161116b939291906117e3565b60405180910390a250505050565b8280548282559060005260206000209081019282156111b4579160200282015b828111156111b4578251825591602001919060010190611199565b506111c09291506111c4565b5090565b5b808211156111c057600081556001016111c5565b80356001600160a01b03811681146111f057600080fd5b919050565b60006020828403121561120757600080fd5b611210826111d9565b9392505050565b6000815180845260005b8181101561123d57602081850181015186830182015201611221565b506000602082860101526020601f19601f83011685010191505092915050565b600081518084526020808501945080840160005b8381101561128d57815187529582019590820190600101611271565b509495945050505050565b60a0815260006112ab60a0830188611217565b82810360208401526112bd8188611217565b905082810360408401526112d18187611217565b905082810360608401526112e5818661125d565b905082810360808401526112f9818561125d565b98975050505050505050565b60006020828403121561131757600080fd5b5035919050565b6040815260006113316040830185611217565b905060018060a01b03831660208301529392505050565b8381526060602082015260006113616060830185611217565b905060018060a01b0383166040830152949350505050565b634e487b7160e01b600052604160045260246000fd5b600082601f8301126113a057600080fd5b813567ffffffffffffffff808211156113bb576113bb611379565b604051601f8301601f19908116603f011681019082821181831017156113e3576113e3611379565b816040528381528660208588010111156113fc57600080fd5b836020870160208301376000602085830101528094505050505092915050565b600080600080600060a0868803121561143457600080fd5b61143d866111d9565b945061144b602087016111d9565b935060408601359250606086013567ffffffffffffffff81111561146e57600080fd5b61147a8882890161138f565b95989497509295608001359392505050565b6001600160a01b03851681526080602082018190526000906114b090830186611217565b82810360408401526114c28186611217565b905082810360608401526114d68185611217565b979650505050505050565b6000602082840312156114f357600080fd5b813567ffffffffffffffff81111561150a57600080fd5b6115168482850161138f565b949350505050565b6001600160a01b038681168252851660208201526040810184905260a06060820181905260009061155190830185611217565b90508260808301529695505050505050565b8681526001600160a01b038681166020830152851660408201526060810184905260c06080820181905260009061159c90830185611217565b90508260a0830152979650505050505050565b6000806000606084860312156115c457600080fd5b833567ffffffffffffffff808211156115dc57600080fd5b6115e88783880161138f565b945060208601359150808211156115fe57600080fd5b61160a8783880161138f565b9350604086013591508082111561162057600080fd5b5061162d8682870161138f565b9150509250925092565b600181811c9082168061164b57607f821691505b60208210810361166b57634e487b7160e01b600052602260045260246000fd5b50919050565b60006001820161169157634e487b7160e01b600052601160045260246000fd5b5060010190565b601f8211156116e257600081815260208120601f850160051c810160208610156116bf5750805b601f850160051c820191505b818110156116de578281556001016116cb565b5050505b505050565b815167ffffffffffffffff81111561170157611701611379565b6117158161170f8454611637565b84611698565b602080601f83116001811461174a57600084156117325750858301515b600019600386901b1c1916600185901b1785556116de565b600085815260208120601f198616915b828110156117795788860151825594840194600190910190840161175a565b50858210156117975787850151600019600388901b60f8161c191681555b5050505050600190811b01905550565b8381526060602082015260006117c06060830185611217565b9050826040830152949350505050565b6020815260006112106020830184611217565b6060815260006117f66060830186611217565b82810360208401526118088186611217565b9050828103604084015261181c8185611217565b969550505050505056fea2646970667358221220a866d25da53f1af222e321cdb7be0c7bd02a5d1913930a4c479c693545bc098d64736f6c63430008140033",
  "devdoc": {
    "kind": "dev",
    "methods": {},
    "version": 1
  },
  "userdoc": {
    "kind": "user",
    "methods": {},
    "version": 1
  },
  "storageLayout": {
    "storage": [
      {
        "astId": 3,
        "contract": "contracts/PollinationStation.sol:PollinationStation",
        "label": "owner",
        "offset": 0,
        "slot": "0",
        "type": "t_address"
      },
      {
        "astId": 43,
        "contract": "contracts/PollinationStation.sol:PollinationStation",
        "label": "daos",
        "offset": 0,
        "slot": "1",
        "type": "t_mapping(t_address,t_struct(DAO)18_storage)"
      },
      {
        "astId": 48,
        "contract": "contracts/PollinationStation.sol:PollinationStation",
        "label": "needs",
        "offset": 0,
        "slot": "2",
        "type": "t_mapping(t_uint256,t_struct(Need)25_storage)"
      },
      {
        "astId": 53,
        "contract": "contracts/PollinationStation.sol:PollinationStation",
        "label": "pollins",
        "offset": 0,
        "slot": "3",
        "type": "t_mapping(t_uint256,t_struct(Pollin)38_storage)"
      },
      {
        "astId": 55,
        "contract": "contracts/PollinationStation.sol:PollinationStation",
        "label": "needCount",
        "offset": 0,
        "slot": "4",
        "type": "t_uint256"
      },
      {
        "astId": 57,
        "contract": "contracts/PollinationStation.sol:PollinationStation",
        "label": "pollinCount",
        "offset": 0,
        "slot": "5",
        "type": "t_uint256"
      }
    ],
    "types": {
      "t_address": {
        "encoding": "inplace",
        "label": "address",
        "numberOfBytes": "20"
      },
      "t_array(t_uint256)dyn_storage": {
        "base": "t_uint256",
        "encoding": "dynamic_array",
        "label": "uint256[]",
        "numberOfBytes": "32"
      },
      "t_mapping(t_address,t_struct(DAO)18_storage)": {
        "encoding": "mapping",
        "key": "t_address",
        "label": "mapping(address => struct PollinationStation.DAO)",
        "numberOfBytes": "32",
        "value": "t_struct(DAO)18_storage"
      },
      "t_mapping(t_uint256,t_struct(Need)25_storage)": {
        "encoding": "mapping",
        "key": "t_uint256",
        "label": "mapping(uint256 => struct PollinationStation.Need)",
        "numberOfBytes": "32",
        "value": "t_struct(Need)25_storage"
      },
      "t_mapping(t_uint256,t_struct(Pollin)38_storage)": {
        "encoding": "mapping",
        "key": "t_uint256",
        "label": "mapping(uint256 => struct PollinationStation.Pollin)",
        "numberOfBytes": "32",
        "value": "t_struct(Pollin)38_storage"
      },
      "t_string_storage": {
        "encoding": "bytes",
        "label": "string",
        "numberOfBytes": "32"
      },
      "t_struct(DAO)18_storage": {
        "encoding": "inplace",
        "label": "struct PollinationStation.DAO",
        "members": [
          {
            "astId": 5,
            "contract": "contracts/PollinationStation.sol:PollinationStation",
            "label": "daoAddress",
            "offset": 0,
            "slot": "0",
            "type": "t_address"
          },
          {
            "astId": 7,
            "contract": "contracts/PollinationStation.sol:PollinationStation",
            "label": "title",
            "offset": 0,
            "slot": "1",
            "type": "t_string_storage"
          },
          {
            "astId": 9,
            "contract": "contracts/PollinationStation.sol:PollinationStation",
            "label": "description",
            "offset": 0,
            "slot": "2",
            "type": "t_string_storage"
          },
          {
            "astId": 11,
            "contract": "contracts/PollinationStation.sol:PollinationStation",
            "label": "socials",
            "offset": 0,
            "slot": "3",
            "type": "t_string_storage"
          },
          {
            "astId": 14,
            "contract": "contracts/PollinationStation.sol:PollinationStation",
            "label": "needIds",
            "offset": 0,
            "slot": "4",
            "type": "t_array(t_uint256)dyn_storage"
          },
          {
            "astId": 17,
            "contract": "contracts/PollinationStation.sol:PollinationStation",
            "label": "pollinIds",
            "offset": 0,
            "slot": "5",
            "type": "t_array(t_uint256)dyn_storage"
          }
        ],
        "numberOfBytes": "192"
      },
      "t_struct(Need)25_storage": {
        "encoding": "inplace",
        "label": "struct PollinationStation.Need",
        "members": [
          {
            "astId": 20,
            "contract": "contracts/PollinationStation.sol:PollinationStation",
            "label": "needId",
            "offset": 0,
            "slot": "0",
            "type": "t_uint256"
          },
          {
            "astId": 22,
            "contract": "contracts/PollinationStation.sol:PollinationStation",
            "label": "description",
            "offset": 0,
            "slot": "1",
            "type": "t_string_storage"
          },
          {
            "astId": 24,
            "contract": "contracts/PollinationStation.sol:PollinationStation",
            "label": "dao",
            "offset": 0,
            "slot": "2",
            "type": "t_address"
          }
        ],
        "numberOfBytes": "96"
      },
      "t_struct(Pollin)38_storage": {
        "encoding": "inplace",
        "label": "struct PollinationStation.Pollin",
        "members": [
          {
            "astId": 27,
            "contract": "contracts/PollinationStation.sol:PollinationStation",
            "label": "pollinId",
            "offset": 0,
            "slot": "0",
            "type": "t_uint256"
          },
          {
            "astId": 29,
            "contract": "contracts/PollinationStation.sol:PollinationStation",
            "label": "daoWithNeed",
            "offset": 0,
            "slot": "1",
            "type": "t_address"
          },
          {
            "astId": 31,
            "contract": "contracts/PollinationStation.sol:PollinationStation",
            "label": "daoWithOffering",
            "offset": 0,
            "slot": "2",
            "type": "t_address"
          },
          {
            "astId": 33,
            "contract": "contracts/PollinationStation.sol:PollinationStation",
            "label": "needId",
            "offset": 0,
            "slot": "3",
            "type": "t_uint256"
          },
          {
            "astId": 35,
            "contract": "contracts/PollinationStation.sol:PollinationStation",
            "label": "descriptionOfRelationship",
            "offset": 0,
            "slot": "4",
            "type": "t_string_storage"
          },
          {
            "astId": 37,
            "contract": "contracts/PollinationStation.sol:PollinationStation",
            "label": "confidence",
            "offset": 0,
            "slot": "5",
            "type": "t_uint256"
          }
        ],
        "numberOfBytes": "192"
      },
      "t_uint256": {
        "encoding": "inplace",
        "label": "uint256",
        "numberOfBytes": "32"
      }
    }
  }
}